{
  "contractName": "Remittance",
  "abi": [
    {
      "constant": true,
      "inputs": [],
      "name": "timeOfCreation",
      "outputs": [
        {
          "name": "",
          "type": "uint256"
        }
      ],
      "payable": false,
      "stateMutability": "view",
      "type": "function"
    },
    {
      "constant": true,
      "inputs": [
        {
          "name": "",
          "type": "bytes32"
        }
      ],
      "name": "password",
      "outputs": [
        {
          "name": "",
          "type": "bool"
        }
      ],
      "payable": false,
      "stateMutability": "view",
      "type": "function"
    },
    {
      "constant": true,
      "inputs": [],
      "name": "puzzle",
      "outputs": [
        {
          "name": "",
          "type": "bytes32"
        }
      ],
      "payable": false,
      "stateMutability": "view",
      "type": "function"
    },
    {
      "constant": true,
      "inputs": [],
      "name": "Carol",
      "outputs": [
        {
          "name": "",
          "type": "address"
        }
      ],
      "payable": false,
      "stateMutability": "view",
      "type": "function"
    },
    {
      "constant": true,
      "inputs": [],
      "name": "timer",
      "outputs": [
        {
          "name": "",
          "type": "uint256"
        }
      ],
      "payable": false,
      "stateMutability": "view",
      "type": "function"
    },
    {
      "constant": true,
      "inputs": [],
      "name": "owner",
      "outputs": [
        {
          "name": "",
          "type": "address"
        }
      ],
      "payable": false,
      "stateMutability": "view",
      "type": "function"
    },
    {
      "inputs": [],
      "payable": true,
      "stateMutability": "payable",
      "type": "constructor"
    },
    {
      "payable": true,
      "stateMutability": "payable",
      "type": "fallback"
    },
    {
      "constant": false,
      "inputs": [
        {
          "name": "_hash",
          "type": "bytes32"
        },
        {
          "name": "Carol_add",
          "type": "address"
        },
        {
          "name": "deadline",
          "type": "uint256"
        }
      ],
      "name": "setConfiguration",
      "outputs": [],
      "payable": false,
      "stateMutability": "nonpayable",
      "type": "function"
    },
    {
      "constant": false,
      "inputs": [
        {
          "name": "Bob_Password",
          "type": "bytes32"
        },
        {
          "name": "Carol_Password",
          "type": "bytes32"
        }
      ],
      "name": "withDraw",
      "outputs": [],
      "payable": true,
      "stateMutability": "payable",
      "type": "function"
    },
    {
      "constant": false,
      "inputs": [],
      "name": "removeFunds",
      "outputs": [],
      "payable": true,
      "stateMutability": "payable",
      "type": "function"
    },
    {
      "constant": false,
      "inputs": [],
      "name": "emergency",
      "outputs": [],
      "payable": false,
      "stateMutability": "nonpayable",
      "type": "function"
    },
    {
      "constant": true,
      "inputs": [],
      "name": "contractBalance",
      "outputs": [
        {
          "name": "",
          "type": "uint256"
        }
      ],
      "payable": false,
      "stateMutability": "view",
      "type": "function"
    }
  ],
  "bytecode": "0x606060405233600160006101000a81548173ffffffffffffffffffffffffffffffffffffffff021916908373ffffffffffffffffffffffffffffffffffffffff160217905550610809806100546000396000f3006060604052600436106100af576000357c0100000000000000000000000000000000000000000000000000000000900463ffffffff1680631dcd69ec146100b157806329804b58146100da578063399fac07146101195780633da86f3c1461014a578063520a57f81461017357806388c9cb3c146101c85780638b7afe2e146101f15780638da5cb5b1461021a578063caa6fea41461026f578063d638436614610284578063feac51f5146102d3575b005b34156100bc57600080fd5b6100c46102dd565b6040518082815260200191505060405180910390f35b34156100e557600080fd5b6100ff6004808035600019169060200190919050506102e3565b604051808215151515815260200191505060405180910390f35b341561012457600080fd5b61012c610303565b60405180826000191660001916815260200191505060405180910390f35b61017160048080356000191690602001909190803560001916906020019091905050610309565b005b341561017e57600080fd5b61018661045d565b604051808273ffffffffffffffffffffffffffffffffffffffff1673ffffffffffffffffffffffffffffffffffffffff16815260200191505060405180910390f35b34156101d357600080fd5b6101db610483565b6040518082815260200191505060405180910390f35b34156101fc57600080fd5b610204610489565b6040518082815260200191505060405180910390f35b341561022557600080fd5b61022d6104a8565b604051808273ffffffffffffffffffffffffffffffffffffffff1673ffffffffffffffffffffffffffffffffffffffff16815260200191505060405180910390f35b341561027a57600080fd5b6102826104ce565b005b341561028f57600080fd5b6102d160048080356000191690602001909190803573ffffffffffffffffffffffffffffffffffffffff1690602001909190803590602001909190505061058b565b005b6102db6106d0565b005b60055481565b60006020528060005260406000206000915054906101000a900460ff1681565b60035481565b3373ffffffffffffffffffffffffffffffffffffffff16600260009054906101000a900473ffffffffffffffffffffffffffffffffffffffff1673ffffffffffffffffffffffffffffffffffffffff1614151561036557600080fd5b4260045411151561037557600080fd5b60003073ffffffffffffffffffffffffffffffffffffffff163111151561039b57600080fd5b8181604051808360001916600019168152602001826000191660001916815260200192505050604051809103902060001916600354600019161415156103e057600080fd5b600260009054906101000a900473ffffffffffffffffffffffffffffffffffffffff1673ffffffffffffffffffffffffffffffffffffffff166108fc3073ffffffffffffffffffffffffffffffffffffffff16319081150290604051600060405180830381858888f19350505050151561045957600080fd5b5050565b600260009054906101000a900473ffffffffffffffffffffffffffffffffffffffff1681565b60045481565b60003073ffffffffffffffffffffffffffffffffffffffff1631905090565b600160009054906101000a900473ffffffffffffffffffffffffffffffffffffffff1681565b3373ffffffffffffffffffffffffffffffffffffffff16600160009054906101000a900473ffffffffffffffffffffffffffffffffffffffff1673ffffffffffffffffffffffffffffffffffffffff1614151561052a57600080fd5b60003073ffffffffffffffffffffffffffffffffffffffff163111151561055057600080fd5b600160009054906101000a900473ffffffffffffffffffffffffffffffffffffffff1673ffffffffffffffffffffffffffffffffffffffff16ff5b3373ffffffffffffffffffffffffffffffffffffffff16600160009054906101000a900473ffffffffffffffffffffffffffffffffffffffff1673ffffffffffffffffffffffffffffffffffffffff161415156105e757600080fd5b60006001026000191683600019161415151561060257600080fd5b60001515600080856000191660001916815260200190815260200160002060009054906101000a900460ff16151514151561063c57600080fd5b6001600080856000191660001916815260200190815260200160002060006101000a81548160ff021916908315150217905550826003816000191690555081600260006101000a81548173ffffffffffffffffffffffffffffffffffffffff021916908373ffffffffffffffffffffffffffffffffffffffff16021790555042810160048190555042600581905550505050565b3373ffffffffffffffffffffffffffffffffffffffff16600160009054906101000a900473ffffffffffffffffffffffffffffffffffffffff1673ffffffffffffffffffffffffffffffffffffffff1614151561072c57600080fd5b60003073ffffffffffffffffffffffffffffffffffffffff163111151561075257600080fd5b4260045410151561076257600080fd5b600160009054906101000a900473ffffffffffffffffffffffffffffffffffffffff1673ffffffffffffffffffffffffffffffffffffffff166108fc3073ffffffffffffffffffffffffffffffffffffffff16319081150290604051600060405180830381858888f1935050505015156107db57600080fd5b5600a165627a7a72305820e3b2f099ea88aa818c3cd6c339889acdc9d2c3cff766fee0f5c9fa0c49c460550029",
  "source": "pragma solidity^0.4.19;  //Esta es la versión de solidity usada en truffle.\n\ncontract Remittance{\n    mapping(bytes32 => bool) public password;   //guarda las contraseñas creadas\n    address public owner;\t\t\t\t\t//guarda dirección de Alice\n    address public Carol;\t\t\t\t//guarda dirección de Carol\n    bytes32 public puzzle;\t\t\t//guarda el acertijo keccak256\n    uint public timer;\t\t\t//guarda el tiempo en que el contrato esta vigente\n    uint public timeOfCreation;\t\t//solo se usa en los test.\n    modifier onlyAlice(){\t\t\t\n        require(owner==msg.sender);\t\t//Solo Alice puede interactuar.\n        _;\n    }\n    modifier onlyCarol(){\n        require(Carol==msg.sender);  //Solo carol puede interactuar\n        _;\n    }\n    \n    modifier deadTime(){\n      require(timer > block.timestamp); //luego de este tiempo, el contrato no entrega fondos a Bob ni Carol.\n      _;\n    }\n    \n    function Remittance() public payable{\n        owner=msg.sender; //fija a Alice como la dueña al crear el contrato.\n    } \n    \n    function () public payable{  //función fallback.\n    }\n    \n    function setConfiguration(bytes32 _hash, address Carol_add, uint deadline) onlyAlice public{\n            require(_hash != bytes32(0));  //el hash no debe ser vacio.\n            require(password[_hash]==false); //el hash no debe existir previamente en el contrato.\n            password[_hash]=true; //indica el hash como usado.\n            puzzle=_hash; //guarda el hash\n            Carol=Carol_add; //guarda la dirección de Carol.\n            timer=deadline+block.timestamp;  //limita el tiempo en que el contrato peude ser usado.\n\t    \ttimeOfCreation=block.timestamp; //solo para la prueba en javascript\n    }\n    \n    function withDraw(bytes32 Bob_Password, bytes32 Carol_Password) onlyCarol deadTime payable public{\n        require(address(this).balance>0); //solo puede retirar si existe balance en el contrato.\n        require(puzzle==keccak256(Bob_Password,Carol_Password));//si utiliza versión mayor a 0.2.23 usar abi.encodePacked\n        //nota: con esto me aseguro que solo puede retirar el que tenga el acertijo\n        Carol.transfer(address(this).balance); //si cumple con lo anterior puede retirar los fondos del contrato.\n\n    }\n    function removeFunds() public onlyAlice payable{ // solo ALICE puede\n        require(address(this).balance>0); //requiere que tenga balance mayor a 0\n        require(timer < block.timestamp); //solo puede retirar si ya se venció el tiempo límite\n        owner.transfer(address(this).balance); //retira el balance.\n    }\n    function emergency()public onlyAlice{  //en caso de emergencia, devuelve los fondos y destruye el contrato.\n        require(address(this).balance>0);\n        selfdestruct(owner);\n    }\n\n    function contractBalance() public view returns(uint){\n    \treturn(address(this).balance);\n    }\n}\n",
  "sourcePath": "/home/mauricio/DAPPS/remittance/contracts/Remittance.sol",
  "compiler": {
    "name": "solc",
    "version": "0.4.19+commit.c4cbbb05.Emscripten.clang"
  },
  "schemaVersion": "1.0.1",
  "updatedAt": "2018-09-12T02:27:02.969Z"
}